:100000000C942A000C9434000C9434000C943400AA
:100010000C9434000C9434000C9434000C94340090
:100020000C9434000C9434000C9434000C94340080
:100030000C9434000C9434000C9434000C94340070
:100040000C9434000C9434000C9434000C94340060
:100050000C94340011241FBECFE5D8E0DEBFCDBF25
:100060000E9436000C94EA020C940000CF93DF93B8
:10007000CDB7DEB7A6970FB6F894DEBF0FBECDBFE3
:1000800087E390E027E330E0F90120812760FC015D
:10009000208388E390E028E330E0F9012081287F85
:1000A000FC01208384E390E024E330E0F901208127
:1000B0002C7FFC01208385E390E025E330E0F9010B
:1000C00020812360FC01208318861F821A861986EE
:1000D0001C821B821E821D8283E390E0FC018081D2
:1000E000882F90E08170992798878F8383E390E031
:1000F000FC018081882F90E0827099279A878987F8
:100100008F819885892B09F09AC08B819C81892BDE
:1001100009F495C01A82198289C088E390E028E327
:1001200030E0F9012081422F21E030E0098002C057
:10013000220F331F0A94E2F7242BFC01208380E076
:1001400090E0AAEFB3E48F87988BA98BBA8B20E05D
:1001500030E04AEF54E46F85788989899A890E9452
:100160005502DC01CB018B8B9C8BAD8BBE8B20E0D1
:1001700030E040E85FE36B897C898D899E890E942D
:10018000CF0188232CF481E090E0988F8F8B3FC0C3
:1001900020E03FEF4FE757E46B897C898D899E898A
:1001A0000E94500218164CF520E030E040E251E485
:1001B0006F85788989899A890E945502DC01CB0173
:1001C000BC01CD010E94D401DC01CB01988F8F8B43
:1001D0000FC088EC90E09A8F898F898D9A8D019756
:1001E000F1F79A8F898F8F89988D0197988F8F8BD0
:1001F0008F89988D892B69F714C06B897C898D89CB
:100200009E890E94D401DC01CB01988F8F8B8F894E
:10021000988D9C8F8B8F8B8D9C8D0197F1F79C8F88
:100220008B8F89819A8101969A83898389819A81AA
:1002300003970CF472CF88E390E0FC0110828F8169
:1002400098859C838B8389859A85892B09F0A2C028
:100250008D819E81892B09F49DC082E090E09A8374
:1002600089838DC088E390E028E330E0F9012081A4
:10027000422F21E030E0098002C0220F331F0A9490
:10028000E2F7242BFC01208380E090E0AAEFB3E4A6
:100290008B879C87AD87BE8720E030E04AEF54E42F
:1002A0006B857C858D859E850E945502DC01CB0186
:1002B0008D8F9E8FAF8FB8A320E030E040E85FE3E2
:1002C0006D8D7E8D8F8D98A10E94CF0188232CF497
:1002D00081E090E09AA389A33FC020E03FEF4FE781
:1002E00057E46D8D7E8D8F8D98A10E945002181657
:1002F0004CF520E030E040E251E46B857C858D8553
:100300009E850E945502DC01CB01BC01CD010E94FB
:10031000D401DC01CB019AA389A30FC088EC90E043
:100320009CA38BA38BA19CA10197F1F79CA38BA30A
:1003300089A19AA101979AA389A389A19AA1892B3E
:1003400069F714C06D8D7E8D8F8D98A10E94D401A8
:10035000DC01CB019AA389A389A19AA19EA38DA3B5
:100360008DA19EA10197F1F79EA38DA389819A810A
:10037000892B59F089819A8101979A838983898190
:100380009A8199230CF06ECF01C0000088E390E0C1
:10039000FC01108289859A859E838D839DCE0E9463
:1003A000030208F481E008950E942F0288F09F570D
:1003B00098F0B92F9927B751B0F0E1F0660F771F89
:1003C000881F991F1AF0BA95C9F714C0B13091F07F
:1003D0000E944902B1E008950C944902672F782FDA
:1003E0008827B85F39F0B93FCCF386957795679544
:1003F000B395D9F73EF490958095709561957F4FB0
:100400008F4F9F4F0895990F0008550FAA0BE0E8F2
:10041000FEEF16161706E807F907C0F012161306C6
:10042000E407F50798F0621B730B840B950B39F406
:100430000A2661F0232B242B252B21F408950A266C
:1004400009F4A140A6958FEF811D811D089557FDE8
:100450009058440F551F59F05F3F71F04795880F32
:1004600097FB991F61F09F3F79F0879508951216C9
:1004700013061406551FF2CF4695F1DF08C0161675
:1004800017061806991FF1CF869571056105089426
:100490000895E894BB2766277727CB0197F908953D
:1004A0000E94030208F48FEF08950E9468020C94E2
:1004B000D9020E94CB0238F00E94D20220F095238C
:1004C00011F00C94C2020C94C80211240C944A023C
:1004D0000E94270270F3959FC1F3950F50E0551FBE
:1004E000629FF001729FBB27F00DB11D639FAA2789
:1004F000F00DB11DAA1F649F6627B00DA11D661FD8
:10050000829F2227B00DA11D621F739FB00DA11DF8
:10051000621F839FA00D611D221F749F3327A00DB2
:10052000611D231F849F600D211D822F762F6A2F4E
:1005300011249F5750409AF0F1F088234AF0EE0FB3
:10054000FF1FBB1F661F771F881F91505040A9F7E0
:100550009E3F510580F00C94C2020C944A025F3F0A
:10056000E4F3983ED4F3869577956795B795F7951C
:10057000E7959F5FC1F7FE2B880F911D9695879594
:1005800097F9089597F99F6780E870E060E0089513
:100590009FEF80EC089500240A941616170618069B
:1005A0000906089500240A94121613061406050677
:1005B0000895092E0394000C11F4882352F0BB0F08
:1005C00040F4BF2B11F460FF04C06F5F7F4F8F4F6B
:0805D0009F4F0895F894FFCF3E
:00000001FF
