:100000000C942A000C9447000C9447000C94470071
:100010000C9447000C9447000C9447000C94470044
:100020000C9447000C9447000C9449000C94470032
:100030000C9447000C9447000C9447000C94470024
:100040000C9447000C9447000C9447000C94470014
:100050000C94470011241FBECFE5D8E0DEBFCDBF12
:1000600010E0A0E6B0E0E2EBF1E002C005900D92F6
:10007000A637B107D9F710E0A6E7B0E001C01D929E
:10008000A837B107E1F70E94B6000C94D7000C9492
:1000900000001F920F920FB60F9211242F938F938F
:1000A0009F93AF93BF93EF93FF93DF93CF93CDB71E
:1000B000DEB7809176008F5F809376009091760016
:1000C00080916100981719F5109276008091770061
:1000D000893019F41092770005C0809177008F5F06
:1000E00080937700ABE3B0E0EBE3F0E08081282F72
:1000F000217080917700882F90E0880F991FFC0174
:10010000EE59FF4F808191818E7F822B8C93CF910E
:10011000DF91FF91EF91BF91AF919F918F912F91BF
:100120000F900FBE0F901F901895DF93CF93CDB710
:10013000DEB7E3E5F0E08CE88083E2E5F0E01082F2
:10014000ECE5F0E0809160008083A9E5B0E0E9E5AE
:10015000F0E0808182608C93AFE5B0E0EFE5F0E005
:10016000808180688C93CF91DF910895DF93CF9346
:10017000CDB7DEB7EAE3F0E08EEF8083ABE3B0E02B
:10018000EBE3F0E0808181708E678C93A4E3B0E0B4
:10019000E4E3F0E0808180648C93A5E3B0E0E5E3E4
:1001A000F0E0808180648C930E949500FFCFF894EA
:0201B000FFCF7F
:1001B200FAFA7E000C00B6009E00CC00DA00FA00CB
:0601C2000E00FE00DE004D
:00000001FF
