:100000000C942A000C9434000C9434000C943400AA
:100010000C9434000C9434000C9434000C94340090
:100020000C9434000C9434000C9434000C94340080
:100030000C9434000C9434000C9434000C94340070
:100040000C9434000C9434000C9434000C94340060
:100050000C94340011241FBECFE5D8E0DEBFCDBF25
:100060000E9436000C9468000C940000DF93CF933C
:10007000CDB7DEB7A4E3B0E0E4E3F0E080818E7FAB
:100080008C93A7E3B0E0E7E3F0E0808181608C939C
:10009000A8E3B0E0E8E3F0E080818E7F8C93E3E3B7
:1000A000F0E08081882F90E081709070882341F08B
:1000B000A8E3B0E0E8E3F0E0808181608C93EFCFCB
:1000C000A8E3B0E0E8E3F0E080818E7F8C93E7CF97
:0400D000F894FFCFD2
:00000001FF
