:100000000C942A000C943F000C943F000C943F0089
:100010000C943F000C943F000C943F000C943F0064
:100020000C943F000C943F000C943F000C943F0054
:100030000C943F000C943F000C943F000C943F0044
:100040000C943F000C943F000C943F000C943F0034
:100050000C943F0011241FBECFE5D8E0DEBFCDBF1A
:1000600010E0A0E6B0E0E6E5F1E002C005900D92F8
:10007000A437B107D9F70E9441000C94A9000C9451
:100080000000CF92DF92EF92FF920F931F93DF93C6
:10009000CF93CDB7DEB764970FB6F894DEBF0FBE2F
:1000A000CDBF81B3837F81BB82B38C6082BB8EEF77
:1000B0008ABB8EE78BBBA69AAE9ADE011196E0E66C
:1000C000F0E084E101900D928150E1F7E0E0F0E092
:1000D000A0E0B0E060E070E07E010894E11CF11C5B
:1000E00020E9C22E21E0D22E80B390E020B330E090
:1000F000287030708C010470107082FD0EC0EF2BE0
:1001000061F0693071054CF46F5F7F4FFB01EE0FBA
:10011000FF1FEE0DFF1D80818BBB2115310571F492
:10012000AB2B61F06115710549F061507040FB0126
:10013000EE0FFF1FEE0DFF1D80818BBB4CE251E0E7
:10014000F6013197F1F741505040D901F801C1F75C
:06015000CBCFF894FFCFB5
:100156007E000C00B6009E00CC00DA00FA000E000D
:04016600FE00DE00B9
:00000001FF
