:100000000C942A000C9447000C9447000C94470071
:100010000C9447000C9447000C9447000C94470044
:100020000C9447000C9447000C9449000C94470032
:100030000C9447000C9447000C9447000C94470024
:100040000C9447000C9447000C9447000C94470014
:100050000C94470011241FBECFE5D8E0DEBFCDBF12
:1000600010E0A0E6B0E0E4E6F1E002C005900D92F9
:10007000A236B107D9F710E0A2E6B0E001C01D92A8
:10008000A336B107E1F70E949B000C94B0000C94DA
:1000900000001F920F920FB60F9211248F939F931F
:1000A000AF93BF93EF93FF93DF93CF93CDB7DEB7BB
:1000B000809162008F5F80936200909162008091D6
:1000C0006100981751F4A5E3B0E0E5E3F0E090811A
:1000D00081E089278C9310926200CF91DF91FF918C
:1000E000EF91BF91AF919F918F910F900FBE0F90A5
:1000F0001F901895DF93CF93CDB7DEB7E3E5F0E01F
:100100008DE88083E2E5F0E01082ECE5F0E080919C
:1001100060008083A9E5B0E0E9E5F0E080818260DD
:100120008C93AFE5B0E0EFE5F0E0808180688C93E0
:10013000CF91DF910895DF93CF93CDB7DEB7A4E3DE
:10014000B0E0E4E3F0E0808181608C93A5E3B0E06F
:10015000E5E3F0E080818E7F8C930E947A00FFCFF0
:04016000F894FFCF41
:02016400FA207F
:00000001FF
